:100000000C947D000C94C2010C949A000C949A00FC
:100010000C949A000C949A000C949A000C94F6019B
:100020000C949A000C949A000C949A000C949A00E8
:100030000C949A000C945C020C949A000C949A0014
:100040000C948C020C949A000C949A000C949A00D4
:100050000C949A000C949A000C949A000C949A00B8
:100060000C949A000C949A000C949A000C949A00A8
:10007000AC08AE08B008B208B408B608B808BA08A8
:10008000BC08BE08C008C208C408C608C908CB0816
:10009000CD08CF08D208D508D808DB08DE08E1086B
:1000A000E408E708E908EB08ED08EF08F208F508AE
:1000B000F708F908FB08FD08FF080109030905090D
:1000C000070909090B090D090F0911091309150978
:1000D000170919091B091D091F09210923094009CD
:1000E00045094A0951096B09FE0988098D099209D8
:1000F00097099C09AF09C609E20911241FBECFEF79
:10010000D0E1DEBFCDBF16E0A0E0B1E0ECEEF5E35C
:1001100002C005900D92A630B107D9F728E0A6E0FD
:10012000B6E001C01D92AD32B207E1F70E94B014F3
:100130000C94F41A0C94000078940895F89408959F
:100140000895EF92FF920F931F93CF93DF93611562
:10015000710599F08A01060F171FEB017C01E61A61
:10016000F70AC017D10739F0C7018C0F9D1F0E94F5
:10017000931A8993F6CF81E001C080E0DF91CF919F
:100180001F910F91FF90EF900895EF92FF920F93C0
:100190001F93CF93DF936115710591F08A01EB01F5
:1001A000060F171F7C01C017D10741F06991C701E5
:1001B0000E94AB1A8FEFE81AF80AF5CF81E001C070
:1001C00080E0DF91CF911F910F91FF90EF90089504
:1001D00008950F931F93CF93DF93CDB7DEB72E977C
:1001E0000FB6F894DEBF0FBECDBF8C014EE050E0DD
:1001F00060E070E0CE0101960E94831A89819A81A5
:100200008F3E9E4B11F080E014C06AE070E0CE019A
:1002100005960E9495142B813C812817390799F780
:100220008AE0FE013596D80101900D928A95E1F79A
:1002300081E02E960FB6F894DEBF0FBECDBFDF91E2
:10024000CF911F910F910895CF93DF93CDB7DEB774
:100250002E970FB6F894DEBF0FBECDBF2FEE3EEB4C
:100260003A8329832AE0FC01DE01159601900D9264
:100270002A95E1F76AE070E00E9495149C838B83D5
:100280004EE050E060E070E0CE0101960E949B1AC3
:100290002E960FB6F894DEBF0FBECDBFDF91CF9183
:1002A0000895E1ECF0E08081806880831092C500C1
:1002B00080E18093C40080818860808380818B7F0F
:1002C0008083E2ECF0E080818460808380818260C2
:1002D000808380818F7D808380818F7E80838081F9
:1002E000877F808308959091C00095FFFCCF809315
:1002F000C60008958091C00084FD0E944303809150
:10030000C00083FD0E9443038091C00082FD0E94D3
:1003100043038091C00087FFFCCF8091C600089501
:100320000C94A7010E94BA010C942F020C94EE04C5
:100330000C94800470E00C9495040C9496040C9436
:10034000F20490E00C94570490E00C946604E9E603
:10035000F0E080818C7F8083E09AE89AE8E6F0E024
:10036000808188608083E3E7F0E080818063808320
:10037000DB9A0895179905C040E060E880E80C9486
:100380004D0308951F920F920FB60F9211248F9371
:100390009F9380B1E898E09A829586958770853022
:1003A00069F020F4843049F486E008C0863019F002
:1003B000873021F002C084E001C08AE08093080603
:1003C0009FB7F89480916E0081FD08C016BC82E052
:1003D00085BB80916E00826080936E009FBF9F916D
:1003E0008F910F900FBE0F901F9018951F920F9234
:1003F0000FB60F9211242F938F939F9329B125FB52
:10040000882780F990E0880F991F22952170822B10
:1004100079F490910906992359F0923011F498E0FB
:1004200005C0913011F499E001C09AE0909307065D
:10043000809309069F918F912F910F900FBE0F907F
:100440001F90189560910A066F5F637060930A06AB
:100450006295660F607E40E080E60C944D030E943A
:1004600022029FB7F89480910706109207069FBF5B
:10047000089582E084BD95E095BD99EF97BD16BCC7
:1004800085BBEEE6F0E090819D7F90831092800026
:100490009CE09093810023E234EF30938900209315
:1004A0008800109285001092840086BBEFE6F0E091
:1004B00080818D7F808308951F920F920FB60F92D7
:1004C00011240F900FBE0F901F9018959FB7F894AE
:1004D00016BC82E085BBEEE6F0E08081826080831E
:1004E0009FBF08959FB7F8941092850010928400E2
:1004F00082E086BBEFE6F0E08081826080839FBF70
:1005000008959FB7F894EEE6F0E080818D7F8083B8
:1005100082E085BB9FBF08951F920F920FB60F9286
:1005200011242F933F934F935F936F937F938F93F8
:100530009F93AF93BF93CF93EF93FF939091080650
:10054000C0911006EC2FF0E0E45FF94F908320910A
:100550000C0680910D06281308C080910E06281302
:1005600004C081E030910F06321380E080FF12C09A
:10057000911107C01092070610920B060E9481028B
:1005800009C080910B06811105C09093070681E098
:1005900080930B06CF5FC370C093100610920806BD
:1005A000E89902C0E09AE89AFF91EF91CF91BF914C
:1005B000AF919F918F917F916F915F914F913F91FB
:1005C0002F910F900FBE0F901F9018959FB7F89422
:1005D000EFE6F0E080818D7F8083B19A9FBF089520
:1005E0000C9422030C9431030C94A0000C94A100F1
:1005F0000C94C5000C94E8000C94E9000C94E900FC
:100600000C94240181E196E0089581E196E008953B
:100610008FEF81B98FE184B917B882E48AB940E0DD
:1006200060E08FEF0E944D0341E065E18FE10E94A1
:100630004D0343E060E482E40E944D038BB180638C
:100640008BB90895813021F038F0823019F0089587
:1006500064E003C066E001C062E041E086E00C9423
:100660004D03E5B1E670E250E53028F4F0E0E050EB
:10067000FF4F8081089583E008950C94A3030C94A8
:10068000A8030C9402040E949703F894FFCF079BE1
:1006900002C017B8089587B90895413051F070F03D
:1006A000423089F04330B9F4EBE2F0E0AAE2B0E086
:1006B0000EC0E5E2F0E0A4E2B0E009C0E2E2F0E062
:1006C000A1E2B0E004C0E8E2F0E0A7E2B0E09C9173
:1006D0009095982311F00C9443039081282F209536
:1006E00092236823692B608308951C9B0E94430317
:1006F00041E060E080E10E944D0385E08A95F1F7DA
:10070000000041E060E180E10C944D03189B0E94E1
:10071000430341E060E081E00E944D0385E08A955B
:10072000F1F7000041E061E081E00C944D030E948C
:1007300008030E9439020E9451010E94A7010E94F1
:1007400096010C949C0089B1881F8827881F089502
:10075000FF920F931F93CF93DF938C0187B1811189
:100760000E9443031B990E944303189B0E9443036A
:1007700041E068E088E00E944D0385E08A95F1F74A
:10078000000041E060E088E00E944D03E80113E0D2
:10079000188219821A821B823CEFF32EF10E012F70
:1007A000602F606840E087E80E944D0341E060E010
:1007B00081E00E944D0388819981AA81BB81BA2F73
:1007C000A92F982F882788839983AA83BB8326B172
:1007D000820F911DA11DB11D88839983AA83BB83BC
:1007E00041E061E081E00E944D030150F012D8CF5A
:1007F00024961C5F1B3061F6DF91CF911F910F9102
:10080000FF9008950E94750385E38A95F1F7000033
:100810004F99FECF0895CF93DF93D82FC62F1C9901
:1008200005C041E060E180E10E944D0340E06D2F92
:100830008FEF0E944D038FEF0E94470342E06C2F21
:100840008FEF0E944D030E94860317B8DF91CF916E
:100850000895CF93DF93D82FC62F87B181110E94BF
:1008600043031C9B0E944303079B05C040E060E8D4
:1008700080E80E944D0341E060E080E10E944D036A
:1008800040E06D2F8FEF0E944D0381E00E944703EF
:1008900042E06C2F81E00E944D030E94860317B84E
:1008A00041E060E180E1DF91CF910C944D036770EE
:1008B0006860837099278295880F807E80610E948E
:1008C0000B0485E08A95F1F7000008959C0181E012
:1008D000411101C080E06770962F9860682F629583
:1008E000607F692B23703327822F8295880F807E4B
:1008F00080610E940B0485E08A95F1F7000008955D
:10090000CF93C0E08C2F8295880F807E66E880614F
:100910000E940B0487E592E00197F1F700C0000008
:10092000CF5FC43079F7CF9108950895FF920F9368
:100930001F93CF93DF93843018F56115710501F192
:10094000C82FC295CC0FC07EC8618B01D0E0F801E2
:10095000F1908F011C9905C041E060E180E10E94A7
:100960004D036F2D6F778C2F8D2B0E940B0487EC1E
:1009700090E00197F1F700C00000DF5FD83039F751
:10098000DF91CF911F910F91FF9008951F93CF9307
:10099000DF93CDB7DEB728970FB6F894DEBF0FBE52
:1009A000CDBF10E088E0E2EEF3E0DE0111960190A9
:1009B0000D928A95E1F7BE016F5F7F4F812F0E94F4
:1009C00096041F5F143071F728960FB6F894DEBFB7
:1009D0000FBECDBFDF91CF911F9108950E9480047B
:1009E0000C94C6041F93CF93DF93009751F0EC0152
:1009F00010E0BE01812F0E9496041F5F28961430DC
:100A0000C1F7DF91CF911F9108950C9473010E945B
:100A1000220B0E941F0A0E9471060C9473060E940A
:100A20008E110C94E2110C948E11AF92BF92CF9262
:100A3000DF92FF920F931F93CF93DF93CDB7DEB773
:100A400062970FB6F894DEBF0FBECDBF843008F0BA
:100A500040C06830F0F541155105D9F1F82E062F48
:100A600010E088E090E05C01A01AB10A5F934F9318
:100A7000BF92AF928BEE93E09F938F931F9289E08A
:100A80008F936E018AE0C80ED11CDF92CF920E9434
:100A9000C2178F2D0E94CB1148E050E0BC01CE015F
:100AA00001960E9489171986A501B60181E090E0A0
:100AB0008C0F9D1F800F911F0E947917BE016F5FE1
:100AC0007F4F8F2D0E94A1110FB6F894DEBF0FBE8D
:100AD000CDBF62960FB6F894DEBF0FBECDBFDF91DB
:100AE000CF911F910F91FF90DF90CF90BF90AF906B
:100AF00008950E948E1160EF73E081E00E94A111C1
:100B00000C94E2110C94E2110C94CB1108950C9406
:100B100092017F928F929F92AF92BF92CF92DF927B
:100B2000EF92FF920F931F93CF93DF93CDB7DEB772
:100B300068970FB6F894DEBF0FBECDBF7E0123E1EC
:100B4000E20EF11C25E0F70111922A95E9F721E068
:100B5000288F9E01285E3F4FA7010E94121310E0CC
:100B600008E289E2982E95E0C92ED12C888D1111CA
:100B700013C00983813011F08DE201C08BE28A83BA
:100B80009B8283E090E0DE01589621E030E0A12EC8
:100B9000012E000CBB0809C0813011F08DE201C0AC
:100BA0008BE2898381E090E0EECF4E91405DE1E001
:100BB000F0E0EC0FFD1FE80FF91FA216B30699F441
:100BC0000083E2E0F0E0EC0FFD1FE80FF91F408327
:100BD000FC01329641E050E04C0F5D1FE40FF51F21
:100BE0000396908202C0408301962F5F3F4F2630CC
:100BF0003105D9F6E1E0F0E0EC0FFD1FE80FF91F39
:100C00001082DE011196FE013A96CF017E2E8F2EC4
:100C10002D9121938A179B07D9F70E948E11672D7A
:100C2000782D83E00E94A1110E94E2110E9492019E
:100C3000843051F4153011F01F5F98CF488D65E076
:100C4000C7010E949E122FC0853021F4112321F08C
:100C500011508CCF863019F198EF980F923008F030
:100C600085CF111108C0888D813011F081E001C05D
:100C70008FEF888F7BCF96012A193B09F701E20F8E
:100C8000F31F9081883021F4993020F49F5F02C0D7
:100C900091119150F701E20FF31F908367CF60E04D
:100CA00070E080E090E868960FB6F894DEBF0FBE63
:100CB000CDBFDF91CF911F910F91FF90EF90DF900B
:100CC000CF90BF90AF909F908F907F9008950C949D
:100CD000940A0C94DA060C94DB0E0C9462100C94BB
:100CE000B9060C9422070C94E6060E944A07882352
:100CF00021F00E94EC060C944D0708950E94BF0657
:100D00006BE176E00C9498108BE196E0089521E079
:100D10002093230690932506809324068130910525
:100D200011F40C946B06029711F40C946D0608955F
:100D3000809123068823D1F0809124069091250686
:100D40008130910529F480919606882339F0089521
:100D5000029721F480919606882341F00E94820533
:100D600010922306109225061092240608950C94E2
:100D70003D030C94410386E296E00C943F0386E227
:100D800096E008950C9497038EE296E008958EE223
:100D900096E008950C940505CF93DF93EC018991BB
:100DA000882319F00E940505FACF8AE0DF91CF91E0
:100DB0000C9405050E9409108EE296E00C94CC0676
:100DC0000C94F00208950895089508950E94340740
:100DD000FC0184810C94F0020F931F93CF93DF9357
:100DE0000E943707EC010E943A078C01FC018481C4
:100DF0009C8198130E94F0028AE0F801DE010190C4
:100E00000D928A95E1F7DF91CF911F910F9108958F
:100E10008FE596E00C9400038FE596E00C94FE02BB
:100E2000EFE5F6E08AE0DF011D928A95E9F781E0BF
:100E3000808392E0918393E09383848396E6958305
:100E4000808708958FE596E00E94FC02811102C020
:100E50000E9410078AE0EFE5F6E0A5E5B6E0019014
:100E60000D928A95E1F708958FE596E008958FE554
:100E700096E0089585E596E0089585E596E0089565
:100E800080916406089580936406089581E08093BC
:100E900054060895809154060895109254060895BA
:100EA0000C94F4026115710529F04115510511F0FA
:100EB0000C94F60280E008956115710529F0411542
:100EC000510511F00C94F80280E008950C94FA0298
:100ED0000C94FC020C94FE020C9400030F931F93DD
:100EE000CF93DF93CDB7DEB729970FB6F894DEBF67
:100EF0000FBECDBF62EE73E083E00E94A1110E949D
:100F00003707FC0185811F928F9389EF93E09F93B0
:100F10008F931F9289E08F938E010F5F1F4F1F9356
:100F20000F930E94C2171986B80182E00E94A11196
:100F30000E94E2110FB6F894DEBF0FBECDBF81E074
:100F400029960FB6F894DEBF0FBECDBFDF91CF91CB
:100F50001F910F9108959F92AF92BF92CF92DF920F
:100F6000EF92FF920F931F93CF93DF93CDB7DEB72E
:100F700029970FB6F894DEBF0FBECDBF0E9437078A
:100F80007C01FC01058162EE73E082E00E94A11108
:100F900060E0F70185810E94E611182F177084E048
:100FA000C82E84E0D82E99E0992E9E012F5F3F4FE6
:100FB00059011F921F93DF92CF921F929F92BF926F
:100FC000AF920E94C217B50183E00E94A1110E9456
:100FD000E2110E9487050FB6F894DEBF0FBECDBFA9
:100FE000863059F028F4843051F08530C1F0E1CFDB
:100FF000883069F0893079F0DCCF83E011C0412F6F
:1010000060E0802F0E94EB11F701858308C0173044
:1010100081F21F5FCECF112361F21150CACF82E05F
:1010200029960FB6F894DEBF0FBECDBFDF91CF91EA
:101030001F910F91FF90EF90DF90CF90BF90AF90F6
:101040009F9008959F92AF92BF92CF92DF92EF92BE
:10105000FF920F931F93CF93DF93CDB7DEB72997FE
:101060000FB6F894DEBF0FBECDBF0E9437077C01DC
:10107000FC01058162EE73E082E00E94A11161E053
:10108000F70185810E94E611182F177084E0C82EA1
:1010900084E0D82E99E0992E9E012F5F3F4F590191
:1010A0001F921F93DF92CF921F929F92BF92AF9297
:1010B0000E94C217B50183E00E94A1110E94E211B3
:1010C0000E9487050FB6F894DEBF0FBECDBF8630F5
:1010D00059F028F4843051F08530C1F0E1CF8830E8
:1010E00069F0893079F0DCCF83E011C0412F61E0F5
:1010F000802F0E94EB11F701858308C0173081F221
:101100001F5FCECF112361F21150CACF82E0299622
:101110000FB6F894DEBF0FBECDBFDF91CF911F9108
:101120000F91FF90EF90DF90CF90BF90AF909F9086
:1011300008950C9484060C94BF060C9434070C9408
:10114000C70690E0FC013197E733F10508F07EC057
:10115000E85CFF4F0C941A1585E079C081E017C058
:1011600081E072C081E03CC081E03DC081E018C0F8
:1011700081E019C081E01AC081E01BC081E01CC081
:1011800081E01DC081E01EC081E01FC082E091E0CF
:10119000089582E059C082E023C082E024C082E04A
:1011A00095E0089582E096E0089582E097E0089542
:1011B00082E098E0089582E099E0089582E09AE064
:1011C000089582E09BE0089582E09CE0089583E02A
:1011D0003EC083E0DCCF83E037C084E035C084E0EC
:1011E00093E0089584E094E0089585E0D0CF85E011
:1011F0002BC087E02CC087E0CACF88E028C088E0F9
:10120000C6CF88E021C089E022C089E0C0CF89E054
:101210001BC08AE01CC08AE0BACF8BE018C08BE00C
:10122000B6CF8BE011C08CE012C08CE0B0CF8CE068
:101230000BC08DE00CC08DE0AACF8DE005C08EE024
:1012400006C08EE0A4CF8EE092E0089580E090E0AA
:101250000895EF92FF920F931F93CF938C010E94FA
:101260003D077C01F801C0818C2F90E0FC01319793
:10127000EE30F10508F0C2C0E159FF4F0C941A1589
:10128000F8018181F701808367C0F8018181F7014E
:10129000818362C0F8018181F70182830E94460741
:1012A000AEC0F8018181F70183830E944607F801EF
:1012B000C181C33041F0C43051F0C23009F09EC04A
:1012C000F70114829BC081E0F701848398C082E01B
:1012D000F701848393C0F8018181813091F050F04F
:1012E000823009F08BC0CF911F910F91FF90EF904A
:1012F0000C942208CF911F910F91FF90EF900C94C6
:101300006E07CF911F910F91FF90EF900C94AB0758
:10131000F8018181F70186831FC0F8018181F701FF
:1013200087831AC0F8018181F701808715C0F80111
:101330008181F701818710C0F8018181813051F0EE
:1013400030F0823009F05AC00E94100705C00E9498
:10135000080754C00E940C070E9446074FC0F801BE
:101360008181813071F040F0823009F047C00E94E5
:10137000E80A0E940F0B42C00E94D40A0E94FB0A96
:101380003DC00E94DE0A0E94050B38C0F801818131
:10139000813089F048F0823089F5CF911F910F910B
:1013A000FF90EF900C94C60CCF911F910F91FF907E
:1013B000EF900C94660BCF911F910F91FF90EF90DF
:1013C0000C94F40BF8018181813089F048F082306F
:1013D000A9F4CF911F910F91FF90EF900C94720E92
:1013E000CF911F910F91FF90EF900C94120DCF9120
:1013F0001F910F91FF90EF900C94A00DC3E08C2FE4
:10140000CF911F910F91FF90EF900895E5E0F1E0EB
:1014100020E030E09081981309C046E0429FC0016F
:10142000439F900D11248B5F9E4F08952F5F3F4F78
:1014300036962834310571F780E090E008958FEFFB
:1014400080939506109296060895FF920F931F932E
:10145000CF93DF9300D0CDB7DEB7F09096068F2DF7
:101460000E94060A8C010097F9F0FC0183818F3FEE
:1014700069F0F09295068F2D0E94060A009719F0E8
:10148000FC01838101C08FEF80939606F80185816E
:10149000882351F00E94A1089A838983CE01019686
:1014A0000E9429090E945C0A0F900F90DF91CF9152
:1014B0001F910F91FF900895823031F0833031F009
:1014C000811106C00C94250A0C94690A0C941F0A19
:1014D00008951F93CF93DF9300D0CDB7DEB710915F
:1014E0009506812F0E94060A0097C1F0FC018281B7
:1014F0008F3FA1F010939606809395060E94060AEE
:10150000FC018581882351F00E94A1089A83898378
:10151000CE0101960E9429090E945C0A0F900F904B
:10152000DF91CF911F910895CF93863081F038F4E9
:10153000843051F08530B1F5CF910C94690A883030
:1015400049F0893081F02EC0CF910C94250ACF91BB
:101550000C941F0A809196060E94060A009711F1CA
:10156000FC0184811BC0C09196068C2F0E94060A44
:101570000097C1F0FC0192819F3FA1F0E5E0F1E00E
:101580008FEF2281921304C02081C21739F0822F7D
:10159000369622E0E53BF207A1F704C08F3F11F039
:1015A00080939606CF9108958EE1E9E0F8E0A7E9EF
:1015B000B6E001900D928A95E1F708958EE1E7E992
:1015C000F6E0A9E0B8E001900D928A95E1F7089560
:1015D0008EE1EBEBF3E0A9E0B8E001900D928A9583
:1015E000E1F78EE1EBEBF3E0A7E9B6E001900D92B5
:1015F0008A95E1F708958AEAE5EBF6E0AFE5B7E012
:1016000001900D928A95E1F708958AEAEFE5F7E0F7
:10161000A5EBB6E001900D928A95E1F708958AEA6C
:10162000E1E1F3E0A5EBB6E001900D928A95E1F7D8
:101630008AEAE1E1F3E0AFE5B7E001900D928A9527
:10164000E1F708950E94E80A0C940F0B853091058C
:1016500054F446E0489F9001499F300D1124C90180
:10166000875F974F089580E090E008958530910559
:1016700054F446E0489F9001499F300D1124C90160
:10168000875F974F089580E090E008958530910539
:1016900054F442E2489F9001499F300D1124C90142
:1016A0008B54994F089580E090E00895853091051E
:1016B00054F442E2489F9001499F300D1124C90122
:1016C0008B54994F089580E090E008958F929F92F7
:1016D000BF92CF92DF92EF92FF920F931F93CF931F
:1016E000DF93CDB7DEB729970FB6F894DEBF0FBEF4
:1016F000CDBF00916F061091700686EAC82E85E076
:10170000D82E99E0B92E9E012F5F3F4F790121EB32
:10171000822E25E0922E1F930F93DF92CF921F927D
:10172000BF92FF92EF920E94C217B70182E00E941F
:10173000A111C8010E94260BFC0121812F938081F9
:101740008F939F928F921F92BF92FF92EF920E946F
:10175000C217B70183E00E94A1110E94E2110E940A
:1017600087050FB6F894DEBF0FBECDBF8630B1F04F
:1017700050F4843069F0853071F610927006109242
:101780006F0682E01FC0883079F08930A1F0C3CFA6
:101790001093700600936F0680E014C010927006DC
:1017A00010926F0683E00EC0043011050CF0B3CF29
:1017B0000F5F1F4FB0CF101611060CF0ACCF0150C9
:1017C0001109A9CF29960FB6F894DEBF0FBECDBF81
:1017D000DF91CF911F910F91FF90EF90DF90CF900D
:1017E000BF909F908F9008956F927F928F929F925B
:1017F000AF92BF92CF92DF92EF92FF920F931F931F
:10180000CF93DF93CDB7DEB72F970FB6F894DEBF37
:101810000FBECDBF86E0E9EDF3E0DE011A96019040
:101820000D928A95E1F700917106109172068091F0
:101830006F06909170060E94260B7C01D12CC12C62
:1018400096EBA92E95E0B92E29E0722E38E0632E92
:101850004BEB842E45E0942EF801EE0FFF1F21E0A4
:1018600030E02C0F3D1FE20FF31F82858F9381859F
:101870008F93BF92AF921F927F923F932F930E94BC
:10188000C217BE016F5F7F4F82E00E94A1110FB6A9
:10189000F894DEBF0FBECDBF0130110551F002300C
:1018A000110559F00115110559F4F701D080C180D7
:1018B00007C0F701D280C38003C0F701D480C58080
:1018C000CF92DF921F926F929F928F921F927F9280
:1018D00021E030E02C0F3D1F3F932F930E94C21751
:1018E0001986BE016F5F7F4F83E00E94A1110E94A5
:1018F000E2110E9487050FB6F894DEBF0FBECDBF80
:101900008630D9F058F4843071F0853009F0A4CFD6
:10191000109272061092710682E023C0883099F00E
:101920008930C1F099CF1093720600937106D0925E
:101930007306C092740680E014C010927206109272
:10194000710683E00EC0023011050CF085CF0F5FE9
:101950001F4F82CF101611060CF07ECF01501109D7
:101960007BCF2F960FB6F894DEBF0FBECDBFDF91B1
:10197000CF911F910F91FF90EF90DF90CF90BF908C
:10198000AF909F908F907F906F900895EF92FF920D
:101990000F931F93CF93DF9360917306709174063A
:1019A000072E000C880B990B0E9489050E940E12CD
:1019B000EC01C11580E8D80769F1D0937406C09393
:1019C0007306E0907106F090720680916F06909118
:1019D00070060E94360B8C01E1E0EE16F10469F00E
:1019E000F2E0EF16F10481F0EF28A1F4CE010E949D
:1019F0003112F801918380830DC0CE010E94311213
:101A0000F8019383828306C0CE010E943912F80147
:101A10009583848382E0DF91CF911F910F91FF9096
:101A2000EF9008958F929F92BF92CF92DF92EF92A4
:101A3000FF920F931F93CF93DF93CDB7DEB7299714
:101A40000FB6F894DEBF0FBECDBF009169061091AE
:101A50006A0686EAC82E85E0D82E99E0B92E9E0146
:101A60002F5F3F4F790121EB822E25E0922E1F93AD
:101A70000F93DF92CF921F92BF92FF92EF920E943C
:101A8000C217B70182E00E94A111C8010E94360B63
:101A9000FC0121812F9380818F939F928F921F92BF
:101AA000BF92FF92EF920E94C217B70183E00E949B
:101AB000A1110E94E2110E9487050FB6F894DEBFC3
:101AC0000FBECDBF8630B1F050F4843069F0853060
:101AD00071F610926A061092690682E01FC0883083
:101AE00079F08930A1F0C3CF10936A06009369069C
:101AF00080E014C010926A061092690683E00EC05E
:101B0000043011050CF0B3CF0F5F1F4FB0CF10168C
:101B100011060CF0ACCF01501109A9CF29960FB6D0
:101B2000F894DEBF0FBECDBFDF91CF911F910F9113
:101B3000FF90EF90DF90CF90BF909F908F9008958F
:101B40002F923F924F925F926F927F928F929F92CD
:101B5000AF92BF92CF92DF92EF92FF920F931F93BB
:101B6000CF93DF93CDB7DEB729970FB6F894DEBFDA
:101B70000FBECDBF00916B0610916C068091690677
:101B800090916A060E94460B4C018AE0482E9BED1C
:101B9000692E95E0792E29E0522E9E012F5F3F4F4E
:101BA000790130E2332E48E0242E5BEBC52E55E060
:101BB000D52E409EC001419E900D11248055910963
:101BC0000E9439129F938F937F926F921F925F9220
:101BD000FF92EF920E94C217F701E80FF91F0FB6AC
:101BE000F894DEBF0FBECDBFCF018E199F090897B5
:101BF00014F43192F9CF1986B70182E00E94A11145
:101C00005401A00EB11EF5018081282F082E000C72
:101C1000330B3F938F931F922F92DF92CF921F929D
:101C20005F92FF92EF920E94C2171986B70183E07C
:101C30000E94A1110E94E2110E9487050FB6F8943C
:101C4000DEBF0FBECDBF863001F158F4843071F095
:101C5000853009F0AECF10926C0610926B0682E0D0
:101C600028C08830C1F08930E9F0A3CF10936C060A
:101C700000936B06F5018081082E000C990B909360
:101C80006E0680936D0680E014C010926C06109270
:101C90006B0683E00EC0013211050CF08ACF0F5F96
:101CA0001F4F87CF101611060CF083CF015011097A
:101CB00080CF29960FB6F894DEBF0FBECDBFDF915F
:101CC000CF911F910F91FF90EF90DF90CF90BF9039
:101CD000AF909F908F907F906F905F904F903F90CC
:101CE0002F900895EF92FF920F931F93CF93DF935E
:101CF00060916D0670916E06072E000C880B990B93
:101D00000E9489050E940E128C01011580E81807B7
:101D1000A9F010936E0600936D06C0916B06D091EA
:101D20006C068091690690916A060E94560B7C01B0
:101D3000C8010E943A12CE0DDF1D888382E0DF9138
:101D4000CF911F910F91FF90EF9008950E949B08F3
:101D5000FC0180819181A281B381AC01BD0153530B
:101D60006D4A71404131594065407105A8F0AC01A0
:101D7000BD015E5F634C7041413A5A456243710553
:101D800068F080589B4EAA42B109893E9048A1054F
:101D9000B10530F0E1E005C0E3E003C0E4E001C0DC
:101DA000E2E0E250E33028F4F0E0E152FC4F8081C1
:101DB000089581E008952F923F924F925F926F9223
:101DC0007F928F929F92AF92BF92CF92DF92EF92CB
:101DD000FF920F931F93CF93DF93CDB7DEB7A997F1
:101DE0000FB6F894DEBF0FBECDBF0E949D085C0108
:101DF000FC0132800E948E11E12CF12C9E012F5D9E
:101E00003F4F690122EE822E25E0922E39E0232EEB
:101E1000F501E114F10411F0118101C010818FEF7F
:101E2000810F8A3008F05EC00E949908FC011230D0
:101E3000A9F038F4113021F5408051806280738020
:101E400022C0133081F01430D9F4208131814281D5
:101E5000538164817581868197810DC0448055804E
:101E60006680778010C024813581468157816081EA
:101E70007181828193810E9442152B013C0103C034
:101E8000412C512C3201332019F1F1E03F1651F071
:101E900022E032121DC023E333E948E853E4C301D2
:101EA000B20112C020E030E040E151E4C301B201D0
:101EB0000E940C1720E030E040EA50E40E94B41584
:101EC00020E030E040E052E40E9443152B013C0149
:101ED0000E94A60E8601282F48E0C301B2010E948D
:101EE000461346C085EF810F823008F041C00E9442
:101EF0009B08FC0180819181A281B381AC01BD016D
:101F000053536D4A7140413159406540710508F4A1
:101F10006CC0AC01BD015E5F634C7041413A5A45F3
:101F20006243710508F466C0AC01BD0140585B4EC8
:101F30006A427109493E50486105710528F440EC38
:101F40005AE06BE270E05AC080E090E0DC01BF93A1
:101F5000AF939F938F939F928F921F922F92DF92B6
:101F6000CF920E94C2170FB6F894DEBF0FBECDBF4E
:101F7000E114F10411F082E001C080E0682F70E00C
:101F800093E0660F771F9A95E1F7E1E0F0E0EC0F40
:101F9000FD1F6E0F7F1F98E0F601DB0101900D928F
:101FA0009A95E1F70E94A111FFEFEF1AFF0A22E0D4
:101FB000E216F10409F02CCFA9960FB6F894DEBF13
:101FC0000FBECDBFDF91CF911F910F91FF90EF908A
:101FD000DF90CF90BF90AF909F908F907F906F9049
:101FE0005F904F903F902F90089540E85BE66EEA37
:101FF00071E004C040E053E360ED70E11B3021F07C
:1020000084819581A681B781841B950BA60BB70BA4
:102010009ECFBF92CF92DF92EF92FF920F931F93CA
:10202000CF93DF930E949B087C010E9499086C016A
:102030000E949F08EC01E114F104D1F1C114D10414
:10204000B9F10E94A60EB82EF701608171818281DC
:1020500093810E9423129E0149E00E940714F70118
:1020600064817581868197810E9423129E01265F7B
:102070003F4F49E00E9407148CE2F82EF986FB8A54
:102080008E010C5E1F4FF601608171818281938108
:102090002B2D48E00E944613075F1F4FF601648115
:1020A0007581868197812B2D48E00E944613FC8E16
:1020B000DF91CF911F910F91FF90EF90DF90CF9024
:1020C000BF9008950F931F93CF93DF938091950650
:1020D0000E94060A8C01809196060E94060AEC0175
:1020E0000E948E110115110569F0D8011196EC912D
:1020F000F0E0EE0FFF1FEB54FD4F6081718180E037
:102100000E94A111209779F0E981F0E0EE0FFF1F06
:10211000EB54FD4F6081718181E0DF91CF911F9180
:102120000F910C94A111DF91CF911F910F91089500
:102130002F923F924F925F926F927F928F929F92D7
:10214000AF92BF92CF92DF92EF92FF920F931F93C5
:10215000CF93DF93CDB7DEB728970FB6F894DEBFE5
:102160000FBECDBF6C017B010E943407FC012781AB
:1021700030E03A832983808590E09C838B838601BD
:10218000CE01019698878F83ED82FE82160198E03A
:10219000290E311CF80161917191819191918F010A
:1021A0000E9455166B017C01EF81F8858191919118
:1021B000F887EF830E94260B5C01FC01628173812A
:1021C00080E090E00E9455162B013C01F5016481EE
:1021D0007581072E000C880B990B0E9457164B0136
:1021E0005C0120EF3FE146E85DE4C701B6010E94D3
:1021F000071787FD13C025EC32EB47E85DE4C70104
:10220000B6010E94AF1518164CF028E931E846E8EF
:102210005DE4C701B6010E94421543C020E839E9D8
:1022200046ED5BE4C701B6010E94071787FD17C0A2
:1022300028E03EE149ED5BE4C701B6010E94AF151D
:1022400018166CF020EC35E347ED5BE4C701B601EE
:102250000E94421520E030E040E251E420C020E03E
:102260003EEA4BE25AE4C701B6010E94071787FD18
:102270002DC020EA31EB4DE25AE4C701B6010E94BD
:10228000AF1518161CF120E03BE24CE25AE4C701FE
:10229000B6010E94421520E030E048EC52E40E9472
:1022A0000C17A30192010E94B4156B017C0120E080
:1022B00030E04AE754E4C501B4010E94B4159B0123
:1022C000AC01C701B6010E94431503C060E070E095
:1022D000CB01ED81FE816193719381939193FE8394
:1022E000ED830215130509F055CF28960FB6F89423
:1022F000DEBF0FBECDBFDF91CF911F910F91FF9039
:10230000EF90DF90CF90BF90AF909F908F907F9095
:102310006F905F904F903F902F900895CF93DF93F1
:10232000C5E7D6E048E050E060E270E0CE010E94F0
:102330008217289686E0C539D807A1F7DF91CF919B
:102340000895CF93DF93843018F56115710501F17D
:10235000FB0101900020E9F73197E61BF70BEB0139
:1023600028E0829FC001112420E030E02E173F07B3
:1023700014F4488101C040E2D901A80FB91FAB583D
:10238000B94F4C932F5F3F4F21962830310571F79D
:10239000DF91CF910895843038F428E0829FC00106
:1023A00011248B58994F089584E096E00895843065
:1023B00040F498E0899FB00111246B58794F0C9438
:1023C0009D01089585E796E00C949F01613009F422
:1023D00082958F700895942F9F70613039F48F70BB
:1023E00020E1929FA0011124842B0895807F892BE6
:1023F0000895482F613009F442954F704F3019F01D
:102400004F5F0C94EB110895482F613009F4429509
:102410004F7019F041500C94EB110895611520E8AC
:1024200072072FEF8207920744F0611520E87207C8
:10243000810591052CF4CB01089580E090E8089582
:102440008FEF9FE7089597FD04C0462F372F282F61
:1024500004C04FEF3FEF2FEF9FE7642F732F822FC2
:1024600008959095892F880F880B082E000C990BE2
:102470000895089580382FEF920724F08038910551
:102480001CF4089580E808958FE70895EF92FF9275
:102490000F931F93CF93DF93CDB7DEB729970FB676
:1024A000F894DEBF0FBECDBF8C011F926F9387EEF5
:1024B00095E09F938F931F9289E08F93CE010196B1
:1024C0007C019F938F930E94C21748E050E060E226
:1024D00070E0C8010E948217F8011086F701019090
:1024E0000020E9F73197AF014E195F090FB6F89454
:1024F000DEBF0FBECDBF4930510560F048505109D5
:10250000F701E40FF51F88E0D80101900D928A953C
:10251000E1F707C0C801841B950BB70108960E941C
:10252000791729960FB6F894DEBF0FBECDBFDF91A5
:10253000CF911F910F91FF90EF9008952F923F92AE
:102540004F925F926F927F928F929F92AF92BF92C3
:10255000CF92DF92EF92FF921F93CF93DF93EC0124
:10256000142FFC01812C912C54018394C12CD12C6B
:102570007601262E312C44244A94542C642C9FE757
:10258000792ECF018C1B9D0B8215930568F5A191C7
:10259000B0E0A50194010E942015A3019201261B21
:1025A000370B480B590B2C153D054E055F057CF488
:1025B00060912B0870912C088AEE95E00E94981784
:1025C0001130D1F060E070E080E090E819C0C60EF4
:1025D000D71EE81EF91EAAE0B0E0A50194010E94F2
:1025E00020154B015C01CDCFA12F110FBB0BA70113
:1025F00096010E942B1504C06FEF7FEF8FEF9FE7CE
:10260000DF91CF911F91FF90EF90DF90CF90BF901F
:10261000AF909F908F907F906F905F904F903F9082
:102620002F900895CF92DF92EF92FF920F931F9316
:10263000CF93DF9397FF0BC0EFEFD901EC93909509
:102640008095709561957F4F8F4F9F4F03C0E1E05C
:10265000D901EC93EA018A010B5F1F4F2AE0C22ED9
:10266000D12CE12CF12CA70196010E94FB14699357
:10267000B901CA01C017D107B1F7DF91CF911F91FE
:102680000F91FF90EF90DF90CF9008952F923F929F
:102690004F925F926F927F928F929F92AF92BF9272
:1026A000CF92DF92EF92FF920F931F93CF93DF931E
:1026B00000D000D0CDB7DEB74B015C01F801642E2D
:1026C000712C30E2CF01801B910B8615970514F415
:1026D0003193F8CFC501B4019F771A821982C22EB7
:1026E000D12C49815A814C155D056CF420E030E015
:1026F00040E251E40E940C1729813A812F5F3F4F3D
:102700003A832983EECF20E030E040E05FE30E948F
:1027100043150E942616F3013197FC83EB837F015A
:10272000E00EF11E93012C193D096901F2E0CF1A68
:10273000D108A901415051095A8349832AE0222E28
:10274000312C412C512C4B815C814F3FEFEF5E07C8
:1027500009F451C06115710581059105F1F0EB8116
:10276000FC8129813A81E217F30721F42EE2F70177
:10277000208309C0A20191010E94D914605DF70174
:102780006083B901CA012B813C81215031093C830E
:102790002B8331E0E31AF108D6CF4C155D05FCF62A
:1027A00020E030E0A901C501B4010E94AF1587FF08
:1027B00007C02B813C81200F311F8DE2F9018083FE
:1027C000F801E60DF71D10820F900F900F900F90FB
:1027D000DF91CF911F910F91FF90EF90DF90CF90FD
:1027E000BF90AF909F908F907F906F905F904F9031
:1027F0003F902F90089520E030E0A901C501B40179
:102800000E94AF1587FFDCCF1C821B82D2CF2F9294
:102810003F924F925F926F927F928F929F92AF9270
:10282000BF92CF92DF92EF92FF920F931F93CF93BD
:10283000DF934B015C018901F901242E312C20E248
:10284000CF01801B910B8215930514F42193F8CFCF
:10285000D501C401B7FE07C088279927DC01881974
:102860009909AA09BB09BC01CD01610121E0C21A85
:10287000D108200E311E7101E6012AE0422E512CB2
:10288000612C712CCF3FFFEFDF0701F1611571055E
:102890008105910571F0E1E0EE1AF108A3019201C2
:1028A0000E94D914605DF7016083B901CA012197C4
:1028B000E9CFCC15DD0579F3B7FE0DC01C161D065A
:1028C0003CF4C00FD11F8DE2888305C0B7FE03C062
:1028D0008DE2F8018083F1011082DF91CF911F9189
:1028E0000F91FF90EF90DF90CF90BF90AF909F90AF
:1028F0008F907F906F905F904F903F902F900895B2
:10290000FC01680F791F80E027E0E617F70761F008
:102910009191892798E087FF03C0880F822701C023
:10292000880F9150C1F7F1CF0895FC01680F791F0E
:102930008FEF9FEFE617F70791F02191922728E09C
:10294000AC01440F551F97FF06C0CA0131E283272F
:1029500030E1932701C0CA01215091F7EBCF0895D0
:102960000E94C2060E9486050E9407050E94790502
:102970000E946F060E94B706882371F00E94BB0672
:102980000E947E0681E090E00E9487060E94750604
:102990000E946F060E9469060E948705882331F015
:1029A0000E94670682E090E00E9487060E949806D7
:1029B000E1CFA1E21A2EAA1BBB1BFD010DC0AA1F6D
:1029C000BB1FEE1FFF1FA217B307E407F50720F098
:1029D000A21BB30BE40BF50B661F771F881F991F13
:1029E0001A9469F760957095809590959B01AC015C
:1029F000BD01CF010895052E97FB1EF400940E949F
:102A0000121557FD07D00E94D91407FC03D04EF4CD
:102A10000C94121550954095309521953F4F4F4F8E
:102A20005F4F089590958095709561957F4F8F4F7A
:102A30009F4F0895EE0FFF1F0590F491E02D09942C
:102A40000E943315A59F900DB49F900DA49F800DFB
:102A5000911D11240895B7FF0C9420150E94201594
:102A6000821B930B0895A29FB001B39FC001A39F47
:102A7000700D811D1124911DB29F700D811D1124B7
:102A8000911D08955058BB27AA270E945A150C94EF
:102A9000CD160E94BF1638F00E94C61620F039F4F9
:102AA0009F3F19F426F40C94BC160EF4E095E7FB56
:102AB0000C94B616E92F0E94DE1658F3BA17620777
:102AC00073078407950720F079F4A6F50C94001796
:102AD0000EF4E0950B2EBA2FA02D0B01B901900139
:102AE0000C01CA01A0011124FF27591B99F0593F7D
:102AF00050F4503E68F11A16F040A22F232F342FC5
:102B00004427585FF3CF469537952795A795F04012
:102B10005395C9F77EF41F16BA0B620B730B840B27
:102B2000BAF09150A1F0FF0FBB1F661F771F881FDF
:102B3000C2F70EC0BA0F621F731F841F48F4879537
:102B400077956795B795F7959E3F08F0B0CF939529
:102B5000880F08F09927EE0F9795879508950E94A2
:102B6000921608F481E008950E94C8150C94CD16C1
:102B70000E94C61658F00E94BF1640F029F45F3F2D
:102B800029F00C94B61651110C9401170C94BC1634
:102B90000E94DE1668F39923B1F3552391F3951B38
:102BA000550BBB27AA2762177307840738F09F5F6E
:102BB0005F4F220F331F441FAA1FA9F335D00E2EDB
:102BC0003AF0E0E832D091505040E695001CCAF748
:102BD0002BD0FE2F29D0660F771F881FBB1F26170B
:102BE00037074807AB07B0E809F0BB0B802DBF01E2
:102BF000FF2793585F4F3AF09E3F510578F00C94B1
:102C0000B6160C9401175F3FE4F3983ED4F3869513
:102C100077956795B795F7959F5FC9F7880F911DD1
:102C20009695879597F90895E1E0660F771F881FBD
:102C3000BB1F621773078407BA0720F0621B730B70
:102C4000840BBA0BEE1F88F7E09508950E94E616F4
:102C500088F09F5798F0B92F9927B751B0F0E1F05D
:102C6000660F771F881F991F1AF0BA95C9F714C00D
:102C7000B13091F00E940017B1E008950C94001754
:102C8000672F782F8827B85F39F0B93FCCF3869546
:102C900077956795B395D9F73EF4909580957095A3
:102CA00061957F4F8F4F9F4F0895E89409C097FB20
:102CB0003EF490958095709561957F4F8F4F9F4F13
:102CC0009923A9F0F92F96E9BB279395F695879557
:102CD00077956795B795F111F8CFFAF4BB0F11F41A
:102CE00060FF1BC06F5F7F4F8F4F9F4F16C08823C1
:102CF00011F096E911C0772321F09EE8872F762FF7
:102D000005C0662371F096E8862F70E060E02AF037
:102D10009A95660F771F881FDAF7880F9695879523
:102D200097F90895990F0008550FAA0BE0E8FEEFF8
:102D300016161706E807F907C0F012161306E4077F
:102D4000F50798F0621B730B840B950B39F40A2678
:102D500061F0232B242B252B21F408950A2609F456
:102D6000A140A6958FEF811D811D089597F99F675A
:102D700080E870E060E008959FEF80EC0895002403
:102D80000A941616170618060906089500240A94D0
:102D900012161306140605060895092E0394000C56
:102DA00011F4882352F0BB0F40F4BF2B11F460FFE5
:102DB00004C06F5F7F4F8F4F9F4F089557FD90580E
:102DC000440F551F59F05F3F71F04795880F97FBEF
:102DD000991F61F09F3F79F08795089512161306A9
:102DE0001406551FF2CF4695F1DF08C016161706D8
:102DF0001806991FF1CF869571056105089408950D
:102E0000E894BB2766277727CB0197F908950E949E
:102E1000921608F48FEF08950E941F170C94CD1698
:102E20000E94BF1638F00E94C61620F0952311F0BC
:102E30000C94B6160C94BC1611240C9401170E9425
:102E4000DE1670F3959FC1F3950F50E0551F629FFA
:102E5000F001729FBB27F00DB11D639FAA27F00DF3
:102E6000B11DAA1F649F6627B00DA11D661F829F1A
:102E70002227B00DA11D621F739FB00DA11D621FFF
:102E8000839FA00D611D221F749F3327A00D611D1C
:102E9000231F849F600D211D822F762F6A2F1124FE
:102EA0009F5750409AF0F1F088234AF0EE0FFF1F31
:102EB000BB1F661F771F881F91505040A9F79E3F88
:102EC000510580F00C94B6160C9401175F3FE4F3A3
:102ED000983ED4F3869577956795B795F795E795DE
:102EE0009F5FC1F7FE2B880F911D9695879597F9E7
:102EF0000895FB01DC0102C001900D924150504049
:102F0000D8F70895DC0101C06D9341505040E0F7BF
:102F10000895FB01DC014150504048F001900D92B2
:102F20000020C9F701C01D9241505040E0F70895BC
:102F3000EF92FF920F931F93CF93DF93DB011396D2
:102F40002C9121FF18C08B017C01D0E0C0E0F7017B
:102F500081917F01882361F0D8011896ED91FC9151
:102F60001997B8010995892B91F3DFEFCFEFEFCFD8
:102F70008D2F9C2F02C08FEF9FEFCDB7DEB7E6E01D
:102F80000C94E51AAEE0B0E0E8ECF7E10C94CB1A53
:102F90000D891E898F89988D26E02C831A830983D9
:102FA00097FF02C080E090E801979E838D83AE0179
:102FB000455E5F4F698D7A8DCE0101960E94F217B2
:102FC0004D815E8157FD0AC02F8138854217530716
:102FD0000CF49A01F801E20FF31F10822E96E4E040
:102FE0000C94E71AABE0B0E0E8EFF7E10C94BD1AFF
:102FF0006C017B018A01FC0117821682838181FFAB
:10300000CCC1CE0101963C01F6019381F70193FDFD
:10301000859193FF81917F01882309F4BAC185329C
:1030200039F493FD859193FF81917F01853229F4D5
:10303000B60190E00E94E919E7CF912C212C312CA8
:10304000FFE1F315D8F08B3279F038F4803279F063
:103050008332A1F4232D20611DC08D3261F08033B5
:1030600069F4232D216016C0832D8260382EE32D54
:10307000E4603E2E2AC0F32DF8601DC037FC2DC041
:1030800020ED280F2A3040F08E32B9F436FC81C191
:10309000232D2064322E19C036FE06C08AE0989E89
:1030A000200D1124922E11C0EAE02E9E200D112435
:1030B000222EF32DF0623F2E08C08C3621F4832D92
:1030C0008068382E02C0883641F4F70193FD85915F
:1030D00093FF81917F018111B3CF982F9F7D9554EC
:1030E000933028F40C5F1F4F9FE399830DC0833604
:1030F00031F0833771F0833509F059C021C0F801F0
:10310000808189830E5F1F4F88248394912C530103
:1031100013C02801F2E04F0E511CF801A080B180CD
:1031200036FE03C0692D70E002C06FEF7FEFC5016E
:103130000E94DE194C018201F32DFF773F2E16C04D
:10314000280122E0420E511CF801A080B18036FE19
:1031500003C0692D70E002C06FEF7FEFC5010E94D0
:10316000D3194C01F32DF0683F2E820133FC1BC0B4
:10317000822D90E088169906B0F4B60180E290E0C6
:103180000E94E9192A94F4CFF50137FC859137FEA6
:1031900081915F01B60190E00E94E91921102A9403
:1031A00021E0821A91088114910471F7E8C08436F5
:1031B00011F0893641F5F80137FE07C06081718151
:1031C000828193810C5F1F4F08C060817181072E3F
:1031D000000C880B990B0E5F1F4FF32DFF763F2ECF
:1031E00097FF09C090958095709561957F4F8F4F9F
:1031F0009F4FF0683F2E2AE030E0A3010E94251A7D
:10320000882E861845C0853731F4232D2F7EB22EA7
:103210002AE030E025C0932D997FB92E8F36C1F07A
:1032200018F4883579F0B5C0803719F0883721F067
:10323000B0C0E92FE061BE2EB4FE0DC0FB2DF460DE
:10324000BF2E09C034FE0AC0292F2660B22E06C048
:1032500028E030E005C020E130E002C020E132E0AB
:10326000F801B7FE07C060817181828193810C5F94
:103270001F4F06C06081718180E090E00E5F1F4F9C
:10328000A3010E94251A882E8618FB2DFF773F2E5A
:1032900036FE0DC0232D2E7FA22E891458F434FE45
:1032A0000BC032FC09C0832D8E7EA82E05C0B82C21
:1032B000A32C03C0B82C01C0B92CA4FE0FC0FE0182
:1032C000E80DF11D8081803321F49A2D997EA92E7D
:1032D00009C0A2FE06C0B394B39404C08A2D8678B8
:1032E00009F0B394A3FC11C0A0FE06C0B21488F488
:1032F000280C922C9B180EC0B21460F4B60180E228
:1033000090E00E94E919B394F7CFB21418F42B1887
:1033100002C0982C212CA4FE10C0B60180E390E0DE
:103320000E94E919A2FE17C0A1FC03C088E790E043
:1033300002C088E590E0B6010CC08A2D867859F06D
:10334000A1FE02C08BE201C080E2A7FC8DE2B601C3
:1033500090E00E94E919891438F4B60180E390E006
:103360000E94E9199A94F7CF8A94F301E80DF11DB0
:103370008081B60190E00E94E9198110F5CF2220EA
:1033800009F442CEB60180E290E00E94E9192A9445
:10339000F6CFF6018681978102C08FEF9FEF2B96C3
:1033A000E2E10C94D91AFC010590615070400110C3
:1033B000D8F7809590958E0F9F1F0895FC0161505E
:1033C000704001900110D8F7809590958E0F9F1F47
:1033D00008950F931F93CF93DF93FB01238121FD6A
:1033E00003C08FEF9FEF2CC022FF16C0468157818C
:1033F000248135814217530744F4A081B1819D0196
:103400002F5F3F4F318320838C93268137812F5F3D
:103410003F4F3783268314C08B01EC01FB010084EE
:10342000F185E02D0995892BE1F6D80116968D914D
:103430009C911797019617969C938E931697CE01A1
:10344000DF91CF911F910F910895FA01AA2728309B
:1034500051F1203181F1E8946F936E7F6E5F7F4F61
:103460008F4F9F4FAF4FB1E03ED0B4E03CD0670FDD
:10347000781F891F9A1FA11D680F791F8A1F911D30
:10348000A11D6A0F711D811D911DA11D20D009F480
:1034900068943F912AE0269F11243019305D3193C2
:1034A000DEF6CF010895462F4770405D4193B3E0AB
:1034B0000FD0C9F7F6CF462F4F70405D4A3318F052
:1034C000495D31FD4052419302D0A9F7EACFB4E003
:1034D000A6959795879577956795BA95C9F70097BB
:1034E0006105710508959B01AC010A2E069457955C
:1034F000479537952795BA95C9F7620F731F841FB3
:10350000951FA01D0895DC01CB01FC01F999FECFA8
:1035100006C0F2BDE1BDF89A319600B40D9241505B
:103520005040B8F70895F999FECF92BD81BDF89A41
:10353000992780B50895DC01A40FB51F4150504074
:1035400048F0CB01840F951F2E910E94AC1A415078
:103550005040D0F70895262FF999FECF92BD81BD36
:10356000F89A019700B4021639F01FBA20BD0FB6C1
:10357000F894FA9AF99A0FBE08952F923F924F92BB
:103580005F926F927F928F929F92AF92BF92CF92F3
:10359000DF92EF92FF920F931F93CF93DF93CDB7FC
:1035A000DEB7CA1BDB0B0FB6F894DEBF0FBECDBF74
:1035B00009942A88398848885F846E847D848C8445
:1035C0009B84AA84B984C884DF80EE80FD800C814E
:1035D0001B81AA81B981CE0FD11D0FB6F894DEBF31
:0C35E0000FBECDBFED010895F894FFCFA1
:1035EC0000030103020000FF01FF000101000D02B6
:1035FC000002020019030003030025040004040068
:10360C002A05000505002B06010606002F070007FA
:10361C000700310800080800340900090900370ABE
:10362C00000A0A00390B000B0B00FF0C000C0C00FD
:10363C003CFF000D0D01FF0E020E0E01FF0F030FDC
:10364C000F01FF1004101001FF1105111101FF12E1
:10365C0006121201FF1307131301FF1408141401AF
:10366C00FF1509151501FF160A161601FF170B1782
:10367C001701FF180C181801FFFF0D190D02FF1A86
:10368C000E1A0E02FF1B0F1B0F02FF1C101C100248
:10369C00FF1D111D1102FF1E121E1202FF1F131F10
:1036AC001302FF2014201402FF2115211502FF2202
:1036BC0016221602FF2317231701FF2418241801C2
:1036CC00FFFF19251903FF261A261A03FF271B27AC
:1036DC001B03FFFF1C2A1C04FF291D291D04FF28A6
:1036EC001E281E04FFFF1F2B1F052D2C202C200530
:1036FC002EFF212D002BFFFF002E002CFFFF002F93
:10370C002106FF3022302206FFFF23312307FF3230
:10371C0024322407FF3325332507FFFF26342308E3
:10372C00FF3527352408FF3628362508FFFF2937B3
:10373C002609FF382A382709FFFF2B39280AFF3AB8
:10374C002C3A290AFF3B2D3B2A0AFFFF2E3C2B0C5F
:10375C00403D003D280CFF3E2F3E290CFF3F303FE3
:10376C002A0CFFFF31402C3C41443241004042FFC7
:10377C003342004143FF34430042FFFF00442D3CE1
:10378C0045FF3545004446FF3646004547FF374761
:10379C000046FFFF00080411041A0423042C04350E
:1037AC00043E0447045004590462046B0474047D01
:1037BC000486048F049804A104AA04B304BC04C5B1
:1037CC0004CE04D704E004E904F204FB0404050D60
:1037DC000516051F05280531053A0543054C055509
:1037EC00055E0567057005790582058B0594059DB9
:1037FC0005C0D3E1ECF4F9FDFF000000FFFFFEFE75
:10380C00FEFEFEFF0001020304040404040301FF96
:10381C00FCF8F4C4D6E4EEF5FAFEFF000000FFFF5E
:10382C00FEFEFEFEFEFF000102030304040403027D
:10383C0001FEFCF9F5000000000000000000000093
:10384C00000000000000000000000000000000006C
:10385C00000000000000000000000000000000005C
:10386C00000000000000000000000000000000004C
:10387C00000000000000000000000000000000003C
:10388C00000000000000000000000000000000002C
:10389C000000000000000000000000672D7F267A69
:1038AC00FF7A2D7F2675FF512D10270000522D1009
:1038BC00270000532D10270000C005C905D20502B2
:1038CC000304202020202020202000252D2A7300F6
:1038DC0053746172742D757000202020203078256F
:1038EC003032780025386400203C424153453E205C
:1038FC0000446973706C61793100446973706C6158
:10390C00793200556E697473202020005265736FF4
:10391C006C6E2E20004272696768746E2E00536FB5
:10392C00636B657473200050726F626520412000D8
:10393C0050726F6265204220005472616E736D6923
:10394C00740053657474696E67730043616C6962CB
:10395C00726E2E0050726F6265204442005431200A
:10396C002020202020005432202020202020005411
:10397C00312D54322020200054322D54312020205F
:10398C000044656C74612054310044656C74612092
:10399C005432004D696E2054312020004D696E2048
:1039AC0054322020004D61782054312020004D618C
:1039BC0078205432202000436F756E743120200023
:1039CC00436F756E7432202000432020202020206D
:1039DC0020004620202020202020004B20202020CA
:1039EC00202020004C6F772020202020004D656483
:1039FC0069756D2020004869676820202020004DE3
:103A0C0061696E20202020004F7468657220202090
:103A1C000046726F6E74202020004261636B202080
:103A2C002020006964785B305D2020006964785B3D
:103A3C00315D2020006964785B325D2020004F6E80
:103A4C00202020202020004F6666202020202000EF
:103A5C005361766520202020004469736361726491
:103A6C00200044656661756C74200045646974209F
:103A7C0020202000436F7265202020200043462028
:103A8C0020202020200050726F6265202531642098
:103A9C0000252D386400252D387300252A68640014
:103AAC00532F4E202020202000536C6F7065202057
:103ABC00200043465A202020202000253368642013
:103ACC00430025386C75002575004E756D62657266
:103ADC00206F766572666C6F7720646574656374AD
:063AEC006564210A0000E0
:00000001FF
